{
  "contracts/TestImplV1.sol": {
    "TestImplV1": {
      "abi": [
        {
          "inputs": [],
          "stateMutability": "nonpayable",
          "type": "constructor"
        },
        {
          "inputs": [],
          "name": "func11",
          "outputs": [],
          "stateMutability": "nonpayable",
          "type": "function"
        },
        {
          "inputs": [],
          "name": "func12",
          "outputs": [],
          "stateMutability": "nonpayable",
          "type": "function"
        },
        {
          "inputs": [],
          "name": "func13",
          "outputs": [],
          "stateMutability": "nonpayable",
          "type": "function"
        },
        {
          "inputs": [],
          "name": "testNumber",
          "outputs": [
            {
              "internalType": "uint256",
              "name": "",
              "type": "uint256"
            }
          ],
          "stateMutability": "view",
          "type": "function"
        }
      ],
      "evm": {
        "bytecode": {
          "linkReferences": {},
          "object": "608060405234801561001057600080fd5b5060008081905550610107806100276000396000f3fe6080604052348015600f57600080fd5b506004361060465760003560e01c80630d1972f314604b578063992b2a06146065578063aac45ff114606d578063d1a1b6f3146075575b600080fd5b6051607d565b604051605c919060ae565b60405180910390f35b606b6083565b005b6073608d565b005b607b6097565b005b60005481565b6001600081905550565b6002600081905550565b6003600081905550565b60a88160c7565b82525050565b600060208201905060c1600083018460a1565b92915050565b600081905091905056fea264697066735822122022edb409b64cfa53b9574a7faab762434843ee7ff17aebcc4db4a45e0ea1e25164736f6c63430008040033",
          "opcodes": "PUSH1 0x80 PUSH1 0x40 MSTORE CALLVALUE DUP1 ISZERO PUSH2 0x10 JUMPI PUSH1 0x0 DUP1 REVERT JUMPDEST POP PUSH1 0x0 DUP1 DUP2 SWAP1 SSTORE POP PUSH2 0x107 DUP1 PUSH2 0x27 PUSH1 0x0 CODECOPY PUSH1 0x0 RETURN INVALID PUSH1 0x80 PUSH1 0x40 MSTORE CALLVALUE DUP1 ISZERO PUSH1 0xF JUMPI PUSH1 0x0 DUP1 REVERT JUMPDEST POP PUSH1 0x4 CALLDATASIZE LT PUSH1 0x46 JUMPI PUSH1 0x0 CALLDATALOAD PUSH1 0xE0 SHR DUP1 PUSH4 0xD1972F3 EQ PUSH1 0x4B JUMPI DUP1 PUSH4 0x992B2A06 EQ PUSH1 0x65 JUMPI DUP1 PUSH4 0xAAC45FF1 EQ PUSH1 0x6D JUMPI DUP1 PUSH4 0xD1A1B6F3 EQ PUSH1 0x75 JUMPI JUMPDEST PUSH1 0x0 DUP1 REVERT JUMPDEST PUSH1 0x51 PUSH1 0x7D JUMP JUMPDEST PUSH1 0x40 MLOAD PUSH1 0x5C SWAP2 SWAP1 PUSH1 0xAE JUMP JUMPDEST PUSH1 0x40 MLOAD DUP1 SWAP2 SUB SWAP1 RETURN JUMPDEST PUSH1 0x6B PUSH1 0x83 JUMP JUMPDEST STOP JUMPDEST PUSH1 0x73 PUSH1 0x8D JUMP JUMPDEST STOP JUMPDEST PUSH1 0x7B PUSH1 0x97 JUMP JUMPDEST STOP JUMPDEST PUSH1 0x0 SLOAD DUP2 JUMP JUMPDEST PUSH1 0x1 PUSH1 0x0 DUP2 SWAP1 SSTORE POP JUMP JUMPDEST PUSH1 0x2 PUSH1 0x0 DUP2 SWAP1 SSTORE POP JUMP JUMPDEST PUSH1 0x3 PUSH1 0x0 DUP2 SWAP1 SSTORE POP JUMP JUMPDEST PUSH1 0xA8 DUP2 PUSH1 0xC7 JUMP JUMPDEST DUP3 MSTORE POP POP JUMP JUMPDEST PUSH1 0x0 PUSH1 0x20 DUP3 ADD SWAP1 POP PUSH1 0xC1 PUSH1 0x0 DUP4 ADD DUP5 PUSH1 0xA1 JUMP JUMPDEST SWAP3 SWAP2 POP POP JUMP JUMPDEST PUSH1 0x0 DUP2 SWAP1 POP SWAP2 SWAP1 POP JUMP INVALID LOG2 PUSH5 0x6970667358 0x22 SLT KECCAK256 0x22 0xED 0xB4 MULMOD 0xB6 0x4C STATICCALL MSTORE8 0xB9 JUMPI 0x4A PUSH32 0xAAB762434843EE7FF17AEBCC4DB4A45E0EA1E25164736F6C6343000804003300 "
        },
        "methodIdentifiers": {
          "func11()": "992b2a06",
          "func12()": "aac45ff1",
          "func13()": "d1a1b6f3",
          "testNumber()": "0d1972f3"
        }
      }
    }
  }
}