{
  "_format": "hh-sol-artifact-1",
  "contractName": "CloneFactory",
  "sourceName": "contracts/CloneFactory.sol",
  "abi": [
    {
      "inputs": [
        {
          "internalType": "address",
          "name": "_impl",
          "type": "address"
        },
        {
          "internalType": "bytes4[]",
          "name": "_funcIds",
          "type": "bytes4[]"
        }
      ],
      "stateMutability": "nonpayable",
      "type": "constructor"
    },
    {
      "anonymous": false,
      "inputs": [
        {
          "indexed": true,
          "internalType": "address",
          "name": "oldImpl",
          "type": "address"
        },
        {
          "indexed": true,
          "internalType": "address",
          "name": "newImpl",
          "type": "address"
        },
        {
          "indexed": true,
          "internalType": "address",
          "name": "admin",
          "type": "address"
        }
      ],
      "name": "ImplUpgraded",
      "type": "event"
    },
    {
      "anonymous": false,
      "inputs": [
        {
          "indexed": true,
          "internalType": "address",
          "name": "previousOwner",
          "type": "address"
        },
        {
          "indexed": true,
          "internalType": "address",
          "name": "newOwner",
          "type": "address"
        }
      ],
      "name": "OwnershipTransferred",
      "type": "event"
    },
    {
      "anonymous": false,
      "inputs": [
        {
          "indexed": true,
          "internalType": "address",
          "name": "proxy",
          "type": "address"
        }
      ],
      "name": "ProxyCloned",
      "type": "event"
    },
    {
      "inputs": [
        {
          "internalType": "uint256",
          "name": "_featureSet",
          "type": "uint256"
        }
      ],
      "name": "clone",
      "outputs": [],
      "stateMutability": "nonpayable",
      "type": "function"
    },
    {
      "inputs": [
        {
          "internalType": "bytes4",
          "name": "",
          "type": "bytes4"
        }
      ],
      "name": "funcIds",
      "outputs": [
        {
          "internalType": "uint256",
          "name": "",
          "type": "uint256"
        }
      ],
      "stateMutability": "view",
      "type": "function"
    },
    {
      "inputs": [
        {
          "internalType": "bytes4",
          "name": "_sig",
          "type": "bytes4"
        }
      ],
      "name": "getFuncId",
      "outputs": [
        {
          "internalType": "uint256",
          "name": "id",
          "type": "uint256"
        }
      ],
      "stateMutability": "view",
      "type": "function"
    },
    {
      "inputs": [],
      "name": "getImplementation",
      "outputs": [
        {
          "internalType": "address",
          "name": "_impl",
          "type": "address"
        }
      ],
      "stateMutability": "view",
      "type": "function"
    },
    {
      "inputs": [],
      "name": "implementation",
      "outputs": [
        {
          "internalType": "address",
          "name": "",
          "type": "address"
        }
      ],
      "stateMutability": "view",
      "type": "function"
    },
    {
      "inputs": [],
      "name": "owner",
      "outputs": [
        {
          "internalType": "address",
          "name": "",
          "type": "address"
        }
      ],
      "stateMutability": "view",
      "type": "function"
    },
    {
      "inputs": [],
      "name": "proxySample",
      "outputs": [
        {
          "internalType": "address",
          "name": "",
          "type": "address"
        }
      ],
      "stateMutability": "view",
      "type": "function"
    },
    {
      "inputs": [],
      "name": "renounceOwnership",
      "outputs": [],
      "stateMutability": "nonpayable",
      "type": "function"
    },
    {
      "inputs": [
        {
          "internalType": "address",
          "name": "newOwner",
          "type": "address"
        }
      ],
      "name": "transferOwnership",
      "outputs": [],
      "stateMutability": "nonpayable",
      "type": "function"
    },
    {
      "inputs": [
        {
          "internalType": "address payable",
          "name": "_proxy",
          "type": "address"
        },
        {
          "internalType": "uint256",
          "name": "_newFeatureSet",
          "type": "uint256"
        }
      ],
      "name": "updateFeatureSet",
      "outputs": [],
      "stateMutability": "nonpayable",
      "type": "function"
    },
    {
      "inputs": [
        {
          "internalType": "address",
          "name": "_impl",
          "type": "address"
        },
        {
          "internalType": "bytes4[]",
          "name": "_funcIds",
          "type": "bytes4[]"
        }
      ],
      "name": "upgradeImplementation",
      "outputs": [],
      "stateMutability": "nonpayable",
      "type": "function"
    }
  ],
  "bytecode": "0x60806040523480156200001157600080fd5b506040516200257e3803806200257e833981810160405281019062000037919062000575565b620000576200004b620000dd60201b60201c565b620000e560201b60201c565b620000698282620001a960201b60201c565b604051620000779062000497565b604051809103906000f08015801562000094573d6000803e3d6000fd5b50600260006101000a81548173ffffffffffffffffffffffffffffffffffffffff021916908373ffffffffffffffffffffffffffffffffffffffff16021790555050506200085d565b600033905090565b60008060009054906101000a900473ffffffffffffffffffffffffffffffffffffffff169050816000806101000a81548173ffffffffffffffffffffffffffffffffffffffff021916908373ffffffffffffffffffffffffffffffffffffffff1602179055508173ffffffffffffffffffffffffffffffffffffffff168173ffffffffffffffffffffffffffffffffffffffff167f8be0079c531659141344cd1fd0a4f28419497f9722a3daafe3b4186f6b6457e060405160405180910390a35050565b620001b9620000dd60201b60201c565b73ffffffffffffffffffffffffffffffffffffffff16620001df6200046e60201b60201c565b73ffffffffffffffffffffffffffffffffffffffff161462000238576040517f08c379a00000000000000000000000000000000000000000000000000000000081526004016200022f90620005f6565b60405180910390fd5b8173ffffffffffffffffffffffffffffffffffffffff16600160009054906101000a900473ffffffffffffffffffffffffffffffffffffffff1673ffffffffffffffffffffffffffffffffffffffff161415620002be577f4e487b7100000000000000000000000000000000000000000000000000000000600052600160045260246000fd5b6000600160009054906101000a900473ffffffffffffffffffffffffffffffffffffffff16905082600160006101000a81548173ffffffffffffffffffffffffffffffffffffffff021916908373ffffffffffffffffffffffffffffffffffffffff16021790555060005b82518160ff161015620003f75760018162000345919062000681565b60ff1660036000858460ff168151811062000389577f4e487b7100000000000000000000000000000000000000000000000000000000600052603260045260246000fd5b60200260200101517bffffffffffffffffffffffffffffffffffffffffffffffffffffffff19167bffffffffffffffffffffffffffffffffffffffffffffffffffffffff19168152602001908152602001600020819055508080620003ee9062000762565b91505062000329565b503373ffffffffffffffffffffffffffffffffffffffff168373ffffffffffffffffffffffffffffffffffffffff168273ffffffffffffffffffffffffffffffffffffffff167fccaaa4b9feacba27578f50948f42e1fdfad5fec30da565489b699aba0d9b8df660405160405180910390a4505050565b60008060009054906101000a900473ffffffffffffffffffffffffffffffffffffffff16905090565b610b8680620019f883390190565b6000620004bc620004b68462000641565b62000618565b90508083825260208201905082856020860282011115620004dc57600080fd5b60005b85811015620005105781620004f588826200055e565b845260208401935060208301925050600181019050620004df565b5050509392505050565b6000815190506200052b8162000829565b92915050565b600082601f8301126200054357600080fd5b815162000555848260208601620004a5565b91505092915050565b6000815190506200056f8162000843565b92915050565b600080604083850312156200058957600080fd5b600062000599858286016200051a565b925050602083015167ffffffffffffffff811115620005b757600080fd5b620005c58582860162000531565b9150509250929050565b6000620005de60208362000670565b9150620005eb8262000800565b602082019050919050565b600060208201905081810360008301526200061181620005cf565b9050919050565b60006200062462000637565b90506200063282826200072c565b919050565b6000604051905090565b600067ffffffffffffffff8211156200065f576200065e620007c0565b5b602082029050602081019050919050565b600082825260208201905092915050565b60006200068e826200071f565b91506200069b836200071f565b92508260ff03821115620006b457620006b362000791565b5b828201905092915050565b6000620006cc82620006ff565b9050919050565b60007fffffffff0000000000000000000000000000000000000000000000000000000082169050919050565b600073ffffffffffffffffffffffffffffffffffffffff82169050919050565b600060ff82169050919050565b6200073782620007ef565b810181811067ffffffffffffffff82111715620007595762000758620007c0565b5b80604052505050565b60006200076f826200071f565b915060ff82141562000786576200078562000791565b5b600182019050919050565b7f4e487b7100000000000000000000000000000000000000000000000000000000600052601160045260246000fd5b7f4e487b7100000000000000000000000000000000000000000000000000000000600052604160045260246000fd5b6000601f19601f8301169050919050565b7f4f776e61626c653a2063616c6c6572206973206e6f7420746865206f776e6572600082015250565b6200083481620006bf565b81146200084057600080fd5b50565b6200084e81620006d3565b81146200085a57600080fd5b50565b61118b806200086d6000396000f3fe608060405234801561001057600080fd5b50600436106100a95760003560e01c80638da5cb5b116100715780638da5cb5b14610140578063aaf10f421461015e578063b40f022b1461017c578063cdc19adf146101ac578063eab9c39f146101c8578063f2fde38b146101e4576100a9565b80630a567de8146100ae57806313974cf5146100ca5780635c60da1b146100e85780636bc2c8b714610106578063715018a614610136575b600080fd5b6100c860048036038101906100c39190610c82565b610200565b005b6100d26104aa565b6040516100df9190610daf565b60405180910390f35b6100f06104d0565b6040516100fd9190610daf565b60405180910390f35b610120600480360381019061011b9190610cd6565b6104f6565b60405161012d9190610e2a565b60405180910390f35b61013e610551565b005b6101486105d9565b6040516101559190610daf565b60405180910390f35b610166610602565b6040516101739190610daf565b60405180910390f35b61019660048036038101906101919190610cd6565b61062c565b6040516101a39190610e2a565b60405180910390f35b6101c660048036038101906101c19190610cff565b610644565b005b6101e260048036038101906101dd9190610c46565b6107a9565b005b6101fe60048036038101906101f99190610c1d565b61089a565b005b610208610992565b73ffffffffffffffffffffffffffffffffffffffff166102266105d9565b73ffffffffffffffffffffffffffffffffffffffff161461027c576040517f08c379a000000000000000000000000000000000000000000000000000000000815260040161027390610e0a565b60405180910390fd5b8173ffffffffffffffffffffffffffffffffffffffff16600160009054906101000a900473ffffffffffffffffffffffffffffffffffffffff1673ffffffffffffffffffffffffffffffffffffffff161415610301577f4e487b7100000000000000000000000000000000000000000000000000000000600052600160045260246000fd5b6000600160009054906101000a900473ffffffffffffffffffffffffffffffffffffffff16905082600160006101000a81548173ffffffffffffffffffffffffffffffffffffffff021916908373ffffffffffffffffffffffffffffffffffffffff16021790555060005b82518160ff161015610433576001816103859190610ed0565b60ff1660036000858460ff16815181106103c8577f4e487b7100000000000000000000000000000000000000000000000000000000600052603260045260246000fd5b60200260200101517bffffffffffffffffffffffffffffffffffffffffffffffffffffffff19167bffffffffffffffffffffffffffffffffffffffffffffffffffffffff1916815260200190815260200160002081905550808061042b90610fbf565b91505061036c565b503373ffffffffffffffffffffffffffffffffffffffff168373ffffffffffffffffffffffffffffffffffffffff168273ffffffffffffffffffffffffffffffffffffffff167fccaaa4b9feacba27578f50948f42e1fdfad5fec30da565489b699aba0d9b8df660405160405180910390a4505050565b600260009054906101000a900473ffffffffffffffffffffffffffffffffffffffff1681565b600160009054906101000a900473ffffffffffffffffffffffffffffffffffffffff1681565b600060036000837bffffffffffffffffffffffffffffffffffffffffffffffffffffffff19167bffffffffffffffffffffffffffffffffffffffffffffffffffffffff19168152602001908152602001600020549050919050565b610559610992565b73ffffffffffffffffffffffffffffffffffffffff166105776105d9565b73ffffffffffffffffffffffffffffffffffffffff16146105cd576040517f08c379a00000000000000000000000000000000000000000000000000000000081526004016105c490610e0a565b60405180910390fd5b6105d7600061099a565b565b60008060009054906101000a900473ffffffffffffffffffffffffffffffffffffffff16905090565b6000600160009054906101000a900473ffffffffffffffffffffffffffffffffffffffff16905090565b60036020528060005260406000206000915090505481565b61064c610992565b73ffffffffffffffffffffffffffffffffffffffff1661066a6105d9565b73ffffffffffffffffffffffffffffffffffffffff16146106c0576040517f08c379a00000000000000000000000000000000000000000000000000000000081526004016106b790610e0a565b60405180910390fd5b60006106ed600260009054906101000a900473ffffffffffffffffffffffffffffffffffffffff16610a5e565b90508073ffffffffffffffffffffffffffffffffffffffff167fceb1c64c35a8e293f818b28979931c8b695dd0e4953939401df3db6e6f7a379c60405160405180910390a260008190508073ffffffffffffffffffffffffffffffffffffffff1663c431be6b84306040518363ffffffff1660e01b8152600401610772929190610e45565b600060405180830381600087803b15801561078c57600080fd5b505af11580156107a0573d6000803e3d6000fd5b50505050505050565b6107b1610992565b73ffffffffffffffffffffffffffffffffffffffff166107cf6105d9565b73ffffffffffffffffffffffffffffffffffffffff1614610825576040517f08c379a000000000000000000000000000000000000000000000000000000000815260040161081c90610e0a565b60405180910390fd5b60008290508073ffffffffffffffffffffffffffffffffffffffff166391dc9008836040518263ffffffff1660e01b81526004016108639190610e2a565b600060405180830381600087803b15801561087d57600080fd5b505af1158015610891573d6000803e3d6000fd5b50505050505050565b6108a2610992565b73ffffffffffffffffffffffffffffffffffffffff166108c06105d9565b73ffffffffffffffffffffffffffffffffffffffff1614610916576040517f08c379a000000000000000000000000000000000000000000000000000000000815260040161090d90610e0a565b60405180910390fd5b600073ffffffffffffffffffffffffffffffffffffffff168173ffffffffffffffffffffffffffffffffffffffff161415610986576040517f08c379a000000000000000000000000000000000000000000000000000000000815260040161097d90610dca565b60405180910390fd5b61098f8161099a565b50565b600033905090565b60008060009054906101000a900473ffffffffffffffffffffffffffffffffffffffff169050816000806101000a81548173ffffffffffffffffffffffffffffffffffffffff021916908373ffffffffffffffffffffffffffffffffffffffff1602179055508173ffffffffffffffffffffffffffffffffffffffff168173ffffffffffffffffffffffffffffffffffffffff167f8be0079c531659141344cd1fd0a4f28419497f9722a3daafe3b4186f6b6457e060405160405180910390a35050565b60006040517f3d602d80600a3d3981f3363d3d373d3d3d363d7300000000000000000000000081528260601b60148201527f5af43d82803e903d91602b57fd5bf3000000000000000000000000000000000060288201526037816000f0915050600073ffffffffffffffffffffffffffffffffffffffff168173ffffffffffffffffffffffffffffffffffffffff161415610b2e576040517f08c379a0000000000000000000000000000000000000000000000000000000008152600401610b2590610dea565b60405180910390fd5b919050565b6000610b46610b4184610e93565b610e6e565b90508083825260208201905082856020860282011115610b6557600080fd5b60005b85811015610b955781610b7b8882610bf3565b845260208401935060208301925050600181019050610b68565b5050509392505050565b600081359050610bae816110f9565b92915050565b600081359050610bc381611110565b92915050565b600082601f830112610bda57600080fd5b8135610bea848260208601610b33565b91505092915050565b600081359050610c0281611127565b92915050565b600081359050610c178161113e565b92915050565b600060208284031215610c2f57600080fd5b6000610c3d84828501610b9f565b91505092915050565b60008060408385031215610c5957600080fd5b6000610c6785828601610bb4565b9250506020610c7885828601610c08565b9150509250929050565b60008060408385031215610c9557600080fd5b6000610ca385828601610b9f565b925050602083013567ffffffffffffffff811115610cc057600080fd5b610ccc85828601610bc9565b9150509250929050565b600060208284031215610ce857600080fd5b6000610cf684828501610bf3565b91505092915050565b600060208284031215610d1157600080fd5b6000610d1f84828501610c08565b91505092915050565b610d3181610f07565b82525050565b6000610d44602683610ebf565b9150610d4f82611058565b604082019050919050565b6000610d67601683610ebf565b9150610d72826110a7565b602082019050919050565b6000610d8a602083610ebf565b9150610d95826110d0565b602082019050919050565b610da981610f77565b82525050565b6000602082019050610dc46000830184610d28565b92915050565b60006020820190508181036000830152610de381610d37565b9050919050565b60006020820190508181036000830152610e0381610d5a565b9050919050565b60006020820190508181036000830152610e2381610d7d565b9050919050565b6000602082019050610e3f6000830184610da0565b92915050565b6000604082019050610e5a6000830185610da0565b610e676020830184610d28565b9392505050565b6000610e78610e89565b9050610e848282610f8e565b919050565b6000604051905090565b600067ffffffffffffffff821115610eae57610ead611018565b5b602082029050602081019050919050565b600082825260208201905092915050565b6000610edb82610f81565b9150610ee683610f81565b92508260ff03821115610efc57610efb610fe9565b5b828201905092915050565b6000610f1282610f57565b9050919050565b6000610f2482610f57565b9050919050565b60007fffffffff0000000000000000000000000000000000000000000000000000000082169050919050565b600073ffffffffffffffffffffffffffffffffffffffff82169050919050565b6000819050919050565b600060ff82169050919050565b610f9782611047565b810181811067ffffffffffffffff82111715610fb657610fb5611018565b5b80604052505050565b6000610fca82610f81565b915060ff821415610fde57610fdd610fe9565b5b600182019050919050565b7f4e487b7100000000000000000000000000000000000000000000000000000000600052601160045260246000fd5b7f4e487b7100000000000000000000000000000000000000000000000000000000600052604160045260246000fd5b6000601f19601f8301169050919050565b7f4f776e61626c653a206e6577206f776e657220697320746865207a65726f206160008201527f6464726573730000000000000000000000000000000000000000000000000000602082015250565b7f455243313136373a20637265617465206661696c656400000000000000000000600082015250565b7f4f776e61626c653a2063616c6c6572206973206e6f7420746865206f776e6572600082015250565b61110281610f07565b811461110d57600080fd5b50565b61111981610f19565b811461112457600080fd5b50565b61113081610f2b565b811461113b57600080fd5b50565b61114781610f77565b811461115257600080fd5b5056fea26469706673582212200eff767656e4908fe97cec6b50bd0442902da0186e8305873f2442c102cb8d6864736f6c63430008040033608060405234801561001057600080fd5b50610b66806100206000396000f3fe6080604052600436106100435760003560e01c8063754c892a1461005c57806391dc900814610087578063c431be6b146100b0578063c45a0155146100d957610052565b3661005257610050610104565b005b61005a610104565b005b34801561006857600080fd5b5061007161011e565b60405161007e91906108fe565b60405180910390f35b34801561009357600080fd5b506100ae60048036038101906100a991906106d7565b610124565b005b3480156100bc57600080fd5b506100d760048036038101906100d29190610729565b6101ed565b005b3480156100e557600080fd5b506100ee6102f2565b6040516100fb9190610848565b60405180910390f35b61010c610318565b61011c61011761047a565b610521565b565b60015481565b600260009054906101000a900473ffffffffffffffffffffffffffffffffffffffff1673ffffffffffffffffffffffffffffffffffffffff163373ffffffffffffffffffffffffffffffffffffffff16146101b4576040517f08c379a00000000000000000000000000000000000000000000000000000000081526004016101ab9061089e565b60405180910390fd5b806001819055506001547f8f5c3a46816f6e7d9f46d6141902a020955bd2d9afa25412917e8673fd920bd660405160405180910390a250565b60006101f96001610547565b9050801561021d576001600060016101000a81548160ff0219169083151502179055505b8260018190555081600260006101000a81548173ffffffffffffffffffffffffffffffffffffffff021916908373ffffffffffffffffffffffffffffffffffffffff1602179055506001547f8f5c3a46816f6e7d9f46d6141902a020955bd2d9afa25412917e8673fd920bd660405160405180910390a280156102ed5760008060016101000a81548160ff0219169083151502179055507f7f26b83ff96e1f2b6a682f133852f6798a09c465da95921460cefb384740249860016040516102e49190610863565b60405180910390a15b505050565b600260009054906101000a900473ffffffffffffffffffffffffffffffffffffffff1681565b600060405160046000823780519150506000600260009054906101000a900473ffffffffffffffffffffffffffffffffffffffff1673ffffffffffffffffffffffffffffffffffffffff16636bc2c8b7836040518263ffffffff1660e01b8152600401610385919061082d565b60206040518083038186803b15801561039d57600080fd5b505afa1580156103b1573d6000803e3d6000fd5b505050506040513d601f19601f820116820180604052508101906103d59190610700565b90506000811161041a576040517f08c379a0000000000000000000000000000000000000000000000000000000008152600401610411906108de565b60405180910390fd5b60006001808361042a919061092a565b600154901c16905060018114610475576040517f08c379a000000000000000000000000000000000000000000000000000000000815260040161046c9061087e565b60405180910390fd5b505050565b6000600260009054906101000a900473ffffffffffffffffffffffffffffffffffffffff1673ffffffffffffffffffffffffffffffffffffffff1663aaf10f426040518163ffffffff1660e01b815260040160206040518083038186803b1580156104e457600080fd5b505afa1580156104f8573d6000803e3d6000fd5b505050506040513d601f19601f8201168201806040525081019061051c91906106ae565b905090565b3660008037600080366000845af43d6000803e8060008114610542573d6000f35b3d6000fd5b60008060019054906101000a900460ff16156105be5760018260ff16148015610576575061057430610637565b155b6105b5576040517f08c379a00000000000000000000000000000000000000000000000000000000081526004016105ac906108be565b60405180910390fd5b60009050610632565b8160ff1660008054906101000a900460ff1660ff1610610613576040517f08c379a000000000000000000000000000000000000000000000000000000000815260040161060a906108be565b60405180910390fd5b816000806101000a81548160ff021916908360ff160217905550600190505b919050565b6000808273ffffffffffffffffffffffffffffffffffffffff163b119050919050565b60008135905061066981610b02565b92915050565b60008151905061067e81610b02565b92915050565b60008135905061069381610b19565b92915050565b6000815190506106a881610b19565b92915050565b6000602082840312156106c057600080fd5b60006106ce8482850161066f565b91505092915050565b6000602082840312156106e957600080fd5b60006106f784828501610684565b91505092915050565b60006020828403121561071257600080fd5b600061072084828501610699565b91505092915050565b6000806040838503121561073c57600080fd5b600061074a85828601610684565b925050602061075b8582860161065a565b9150509250929050565b61076e81610970565b82525050565b61077d816109d3565b82525050565b61078c816109f7565b82525050565b600061079f601b83610919565b91506107aa82610a38565b602082019050919050565b60006107c2601583610919565b91506107cd82610a61565b602082019050919050565b60006107e5602e83610919565b91506107f082610a8a565b604082019050919050565b6000610808601b83610919565b915061081382610ad9565b602082019050919050565b610827816109bc565b82525050565b60006020820190506108426000830184610765565b92915050565b600060208201905061085d6000830184610774565b92915050565b60006020820190506108786000830184610783565b92915050565b6000602082019050818103600083015261089781610792565b9050919050565b600060208201905081810360008301526108b7816107b5565b9050919050565b600060208201905081810360008301526108d7816107d8565b9050919050565b600060208201905081810360008301526108f7816107fb565b9050919050565b6000602082019050610913600083018461081e565b92915050565b600082825260208201905092915050565b6000610935826109bc565b9150610940836109bc565b92508282101561095357610952610a09565b5b828203905092915050565b60006109698261099c565b9050919050565b60007fffffffff0000000000000000000000000000000000000000000000000000000082169050919050565b600073ffffffffffffffffffffffffffffffffffffffff82169050919050565b6000819050919050565b600060ff82169050919050565b60006109de826109e5565b9050919050565b60006109f08261099c565b9050919050565b6000610a02826109c6565b9050919050565b7f4e487b7100000000000000000000000000000000000000000000000000000000600052601160045260246000fd5b7f6e6f207065726d697373696f6e20666f7220746869732063616c6c0000000000600082015250565b7f63616c6c6572206973206e6f7420666163746f72790000000000000000000000600082015250565b7f496e697469616c697a61626c653a20636f6e747261637420697320616c72656160008201527f647920696e697469616c697a6564000000000000000000000000000000000000602082015250565b7f6e6f2066756e6374696f6e20696e2074686520636f6e74726163740000000000600082015250565b610b0b8161095e565b8114610b1657600080fd5b50565b610b22816109bc565b8114610b2d57600080fd5b5056fea2646970667358221220cb4cfd304843e69417de96773f96869ac2b02878824bafdda0ff9186997a275a64736f6c63430008040033",
  "linkReferences": {},
  "deployedLinkReferences": {}
}