{
  "_format": "hh-sol-artifact-1",
  "contractName": "UpgradeableProxy",
  "sourceName": "contracts/UpgradeableProxy.sol",
  "abi": [
    {
      "anonymous": false,
      "inputs": [
        {
          "indexed": true,
          "internalType": "uint256",
          "name": "newFeatureSet",
          "type": "uint256"
        }
      ],
      "name": "FeatureSetUpdated",
      "type": "event"
    },
    {
      "anonymous": false,
      "inputs": [
        {
          "indexed": false,
          "internalType": "uint8",
          "name": "version",
          "type": "uint8"
        }
      ],
      "name": "Initialized",
      "type": "event"
    },
    {
      "stateMutability": "payable",
      "type": "fallback"
    },
    {
      "inputs": [],
      "name": "factory",
      "outputs": [
        {
          "internalType": "contract CloneFactory",
          "name": "",
          "type": "address"
        }
      ],
      "stateMutability": "view",
      "type": "function"
    },
    {
      "inputs": [],
      "name": "featureSet",
      "outputs": [
        {
          "internalType": "uint256",
          "name": "",
          "type": "uint256"
        }
      ],
      "stateMutability": "view",
      "type": "function"
    },
    {
      "inputs": [
        {
          "internalType": "uint256",
          "name": "_featureSet",
          "type": "uint256"
        },
        {
          "internalType": "address",
          "name": "_factory",
          "type": "address"
        }
      ],
      "name": "setUp",
      "outputs": [],
      "stateMutability": "nonpayable",
      "type": "function"
    },
    {
      "inputs": [
        {
          "internalType": "uint256",
          "name": "_featureSet",
          "type": "uint256"
        }
      ],
      "name": "updateFeatureSet",
      "outputs": [],
      "stateMutability": "nonpayable",
      "type": "function"
    },
    {
      "stateMutability": "payable",
      "type": "receive"
    }
  ],
  "bytecode": "0x608060405234801561001057600080fd5b50610b66806100206000396000f3fe6080604052600436106100435760003560e01c8063754c892a1461005c57806391dc900814610087578063c431be6b146100b0578063c45a0155146100d957610052565b3661005257610050610104565b005b61005a610104565b005b34801561006857600080fd5b5061007161011e565b60405161007e91906108fe565b60405180910390f35b34801561009357600080fd5b506100ae60048036038101906100a991906106d7565b610124565b005b3480156100bc57600080fd5b506100d760048036038101906100d29190610729565b6101ed565b005b3480156100e557600080fd5b506100ee6102f2565b6040516100fb9190610848565b60405180910390f35b61010c610318565b61011c61011761047a565b610521565b565b60015481565b600260009054906101000a900473ffffffffffffffffffffffffffffffffffffffff1673ffffffffffffffffffffffffffffffffffffffff163373ffffffffffffffffffffffffffffffffffffffff16146101b4576040517f08c379a00000000000000000000000000000000000000000000000000000000081526004016101ab9061089e565b60405180910390fd5b806001819055506001547f8f5c3a46816f6e7d9f46d6141902a020955bd2d9afa25412917e8673fd920bd660405160405180910390a250565b60006101f96001610547565b9050801561021d576001600060016101000a81548160ff0219169083151502179055505b8260018190555081600260006101000a81548173ffffffffffffffffffffffffffffffffffffffff021916908373ffffffffffffffffffffffffffffffffffffffff1602179055506001547f8f5c3a46816f6e7d9f46d6141902a020955bd2d9afa25412917e8673fd920bd660405160405180910390a280156102ed5760008060016101000a81548160ff0219169083151502179055507f7f26b83ff96e1f2b6a682f133852f6798a09c465da95921460cefb384740249860016040516102e49190610863565b60405180910390a15b505050565b600260009054906101000a900473ffffffffffffffffffffffffffffffffffffffff1681565b600060405160046000823780519150506000600260009054906101000a900473ffffffffffffffffffffffffffffffffffffffff1673ffffffffffffffffffffffffffffffffffffffff16636bc2c8b7836040518263ffffffff1660e01b8152600401610385919061082d565b60206040518083038186803b15801561039d57600080fd5b505afa1580156103b1573d6000803e3d6000fd5b505050506040513d601f19601f820116820180604052508101906103d59190610700565b90506000811161041a576040517f08c379a0000000000000000000000000000000000000000000000000000000008152600401610411906108de565b60405180910390fd5b60006001808361042a919061092a565b600154901c16905060018114610475576040517f08c379a000000000000000000000000000000000000000000000000000000000815260040161046c9061087e565b60405180910390fd5b505050565b6000600260009054906101000a900473ffffffffffffffffffffffffffffffffffffffff1673ffffffffffffffffffffffffffffffffffffffff1663aaf10f426040518163ffffffff1660e01b815260040160206040518083038186803b1580156104e457600080fd5b505afa1580156104f8573d6000803e3d6000fd5b505050506040513d601f19601f8201168201806040525081019061051c91906106ae565b905090565b3660008037600080366000845af43d6000803e8060008114610542573d6000f35b3d6000fd5b60008060019054906101000a900460ff16156105be5760018260ff16148015610576575061057430610637565b155b6105b5576040517f08c379a00000000000000000000000000000000000000000000000000000000081526004016105ac906108be565b60405180910390fd5b60009050610632565b8160ff1660008054906101000a900460ff1660ff1610610613576040517f08c379a000000000000000000000000000000000000000000000000000000000815260040161060a906108be565b60405180910390fd5b816000806101000a81548160ff021916908360ff160217905550600190505b919050565b6000808273ffffffffffffffffffffffffffffffffffffffff163b119050919050565b60008135905061066981610b02565b92915050565b60008151905061067e81610b02565b92915050565b60008135905061069381610b19565b92915050565b6000815190506106a881610b19565b92915050565b6000602082840312156106c057600080fd5b60006106ce8482850161066f565b91505092915050565b6000602082840312156106e957600080fd5b60006106f784828501610684565b91505092915050565b60006020828403121561071257600080fd5b600061072084828501610699565b91505092915050565b6000806040838503121561073c57600080fd5b600061074a85828601610684565b925050602061075b8582860161065a565b9150509250929050565b61076e81610970565b82525050565b61077d816109d3565b82525050565b61078c816109f7565b82525050565b600061079f601b83610919565b91506107aa82610a38565b602082019050919050565b60006107c2601583610919565b91506107cd82610a61565b602082019050919050565b60006107e5602e83610919565b91506107f082610a8a565b604082019050919050565b6000610808601b83610919565b915061081382610ad9565b602082019050919050565b610827816109bc565b82525050565b60006020820190506108426000830184610765565b92915050565b600060208201905061085d6000830184610774565b92915050565b60006020820190506108786000830184610783565b92915050565b6000602082019050818103600083015261089781610792565b9050919050565b600060208201905081810360008301526108b7816107b5565b9050919050565b600060208201905081810360008301526108d7816107d8565b9050919050565b600060208201905081810360008301526108f7816107fb565b9050919050565b6000602082019050610913600083018461081e565b92915050565b600082825260208201905092915050565b6000610935826109bc565b9150610940836109bc565b92508282101561095357610952610a09565b5b828203905092915050565b60006109698261099c565b9050919050565b60007fffffffff0000000000000000000000000000000000000000000000000000000082169050919050565b600073ffffffffffffffffffffffffffffffffffffffff82169050919050565b6000819050919050565b600060ff82169050919050565b60006109de826109e5565b9050919050565b60006109f08261099c565b9050919050565b6000610a02826109c6565b9050919050565b7f4e487b7100000000000000000000000000000000000000000000000000000000600052601160045260246000fd5b7f6e6f207065726d697373696f6e20666f7220746869732063616c6c0000000000600082015250565b7f63616c6c6572206973206e6f7420666163746f72790000000000000000000000600082015250565b7f496e697469616c697a61626c653a20636f6e747261637420697320616c72656160008201527f647920696e697469616c697a6564000000000000000000000000000000000000602082015250565b7f6e6f2066756e6374696f6e20696e2074686520636f6e74726163740000000000600082015250565b610b0b8161095e565b8114610b1657600080fd5b50565b610b22816109bc565b8114610b2d57600080fd5b5056fea2646970667358221220cb4cfd304843e69417de96773f96869ac2b02878824bafdda0ff9186997a275a64736f6c63430008040033",
  "linkReferences": {},
  "deployedLinkReferences": {}
}